{
  "contractName": "ERC20",
  "abi": [
    {
      "inputs": [
        {
          "internalType": "string",
          "name": "_name",
          "type": "string"
        },
        {
          "internalType": "string",
          "name": "_symbol",
          "type": "string"
        },
        {
          "internalType": "uint256",
          "name": "_decimals",
          "type": "uint256"
        }
      ],
      "stateMutability": "nonpayable",
      "type": "constructor"
    },
    {
      "anonymous": false,
      "inputs": [
        {
          "indexed": true,
          "internalType": "address",
          "name": "_owner",
          "type": "address"
        },
        {
          "indexed": true,
          "internalType": "address",
          "name": "_spender",
          "type": "address"
        },
        {
          "indexed": false,
          "internalType": "uint256",
          "name": "_value",
          "type": "uint256"
        }
      ],
      "name": "Approval",
      "type": "event"
    },
    {
      "anonymous": false,
      "inputs": [
        {
          "indexed": true,
          "internalType": "address",
          "name": "_from",
          "type": "address"
        },
        {
          "indexed": true,
          "internalType": "address",
          "name": "_to",
          "type": "address"
        },
        {
          "indexed": false,
          "internalType": "uint256",
          "name": "_value",
          "type": "uint256"
        }
      ],
      "name": "Transfer",
      "type": "event"
    },
    {
      "inputs": [
        {
          "internalType": "address",
          "name": "",
          "type": "address"
        },
        {
          "internalType": "address",
          "name": "",
          "type": "address"
        }
      ],
      "name": "allowance",
      "outputs": [
        {
          "internalType": "uint256",
          "name": "",
          "type": "uint256"
        }
      ],
      "stateMutability": "view",
      "type": "function"
    },
    {
      "inputs": [
        {
          "internalType": "address",
          "name": "",
          "type": "address"
        }
      ],
      "name": "balanceOf",
      "outputs": [
        {
          "internalType": "uint256",
          "name": "",
          "type": "uint256"
        }
      ],
      "stateMutability": "view",
      "type": "function"
    },
    {
      "inputs": [],
      "name": "decimals",
      "outputs": [
        {
          "internalType": "uint256",
          "name": "",
          "type": "uint256"
        }
      ],
      "stateMutability": "view",
      "type": "function"
    },
    {
      "inputs": [],
      "name": "name",
      "outputs": [
        {
          "internalType": "string",
          "name": "",
          "type": "string"
        }
      ],
      "stateMutability": "view",
      "type": "function"
    },
    {
      "inputs": [],
      "name": "owner",
      "outputs": [
        {
          "internalType": "address",
          "name": "",
          "type": "address"
        }
      ],
      "stateMutability": "view",
      "type": "function"
    },
    {
      "inputs": [],
      "name": "symbol",
      "outputs": [
        {
          "internalType": "string",
          "name": "",
          "type": "string"
        }
      ],
      "stateMutability": "view",
      "type": "function"
    },
    {
      "inputs": [],
      "name": "totalSupply",
      "outputs": [
        {
          "internalType": "uint256",
          "name": "",
          "type": "uint256"
        }
      ],
      "stateMutability": "view",
      "type": "function"
    },
    {
      "inputs": [
        {
          "internalType": "address",
          "name": "userChangToAddr",
          "type": "address"
        }
      ],
      "name": "changeOwnership",
      "outputs": [],
      "stateMutability": "nonpayable",
      "type": "function"
    },
    {
      "inputs": [
        {
          "internalType": "address",
          "name": "_to",
          "type": "address"
        },
        {
          "internalType": "uint256",
          "name": "_value",
          "type": "uint256"
        }
      ],
      "name": "transfer",
      "outputs": [
        {
          "internalType": "bool",
          "name": "success",
          "type": "bool"
        }
      ],
      "stateMutability": "nonpayable",
      "type": "function"
    },
    {
      "inputs": [
        {
          "internalType": "address",
          "name": "_from",
          "type": "address"
        },
        {
          "internalType": "address",
          "name": "_to",
          "type": "address"
        },
        {
          "internalType": "uint256",
          "name": "_value",
          "type": "uint256"
        }
      ],
      "name": "transferFrom",
      "outputs": [
        {
          "internalType": "bool",
          "name": "success",
          "type": "bool"
        }
      ],
      "stateMutability": "nonpayable",
      "type": "function"
    },
    {
      "inputs": [
        {
          "internalType": "address",
          "name": "_spender",
          "type": "address"
        },
        {
          "internalType": "uint256",
          "name": "_value",
          "type": "uint256"
        }
      ],
      "name": "approve",
      "outputs": [
        {
          "internalType": "bool",
          "name": "success",
          "type": "bool"
        }
      ],
      "stateMutability": "nonpayable",
      "type": "function"
    },
    {
      "inputs": [
        {
          "internalType": "address",
          "name": "to",
          "type": "address"
        },
        {
          "internalType": "uint256",
          "name": "amount",
          "type": "uint256"
        }
      ],
      "name": "mint",
      "outputs": [],
      "stateMutability": "nonpayable",
      "type": "function"
    },
    {
      "inputs": [
        {
          "internalType": "address",
          "name": "from",
          "type": "address"
        },
        {
          "internalType": "uint256",
          "name": "amount",
          "type": "uint256"
        }
      ],
      "name": "burn",
      "outputs": [],
      "stateMutability": "nonpayable",
      "type": "function"
    },
    {
      "inputs": [
        {
          "internalType": "address",
          "name": "allowed",
          "type": "address"
        }
      ],
      "name": "canMintAdd",
      "outputs": [],
      "stateMutability": "nonpayable",
      "type": "function"
    }
  ],
  "bytecode": "0x60806040523480156200001157600080fd5b5060405162001c5938038062001c5983398181016040528101906200003791906200027a565b826004908162000048919062000555565b5081600590816200005a919062000555565b5033600360006101000a81548173ffffffffffffffffffffffffffffffffffffffff021916908373ffffffffffffffffffffffffffffffffffffffff160217905550806006819055505050506200063c565b6000604051905090565b600080fd5b600080fd5b600080fd5b600080fd5b6000601f19601f8301169050919050565b7f4e487b7100000000000000000000000000000000000000000000000000000000600052604160045260246000fd5b6200011582620000ca565b810181811067ffffffffffffffff82111715620001375762000136620000db565b5b80604052505050565b60006200014c620000ac565b90506200015a82826200010a565b919050565b600067ffffffffffffffff8211156200017d576200017c620000db565b5b6200018882620000ca565b9050602081019050919050565b60005b83811015620001b557808201518184015260208101905062000198565b60008484015250505050565b6000620001d8620001d2846200015f565b62000140565b905082815260208101848484011115620001f757620001f6620000c5565b5b6200020484828562000195565b509392505050565b600082601f830112620002245762000223620000c0565b5b815162000236848260208601620001c1565b91505092915050565b6000819050919050565b62000254816200023f565b81146200026057600080fd5b50565b600081519050620002748162000249565b92915050565b600080600060608486031215620002965762000295620000b6565b5b600084015167ffffffffffffffff811115620002b757620002b6620000bb565b5b620002c5868287016200020c565b935050602084015167ffffffffffffffff811115620002e957620002e8620000bb565b5b620002f7868287016200020c565b92505060406200030a8682870162000263565b9150509250925092565b600081519050919050565b7f4e487b7100000000000000000000000000000000000000000000000000000000600052602260045260246000fd5b600060028204905060018216806200036757607f821691505b6020821081036200037d576200037c6200031f565b5b50919050565b60008190508160005260206000209050919050565b60006020601f8301049050919050565b600082821b905092915050565b600060088302620003e77fffffffffffffffffffffffffffffffffffffffffffffffffffffffffffffffff82620003a8565b620003f38683620003a8565b95508019841693508086168417925050509392505050565b6000819050919050565b600062000436620004306200042a846200023f565b6200040b565b6200023f565b9050919050565b6000819050919050565b620004528362000415565b6200046a62000461826200043d565b848454620003b5565b825550505050565b600090565b6200048162000472565b6200048e81848462000447565b505050565b5b81811015620004b657620004aa60008262000477565b60018101905062000494565b5050565b601f8211156200050557620004cf8162000383565b620004da8462000398565b81016020851015620004ea578190505b62000502620004f98562000398565b83018262000493565b50505b505050565b600082821c905092915050565b60006200052a600019846008026200050a565b1980831691505092915050565b600062000545838362000517565b9150826002028217905092915050565b620005608262000314565b67ffffffffffffffff8111156200057c576200057b620000db565b5b6200058882546200034e565b62000595828285620004ba565b600060209050601f831160018114620005cd5760008415620005b8578287015190505b620005c4858262000537565b86555062000634565b601f198416620005dd8662000383565b60005b828110156200060757848901518255600182019150602085019450602081019050620005e0565b8683101562000627578489015162000623601f89168262000517565b8355505b6001600288020188555050505b505050505050565b61160d806200064c6000396000f3fe608060405234801561001057600080fd5b50600436106100ea5760003560e01c806354979b8d1161008c57806395d89b411161006657806395d89b411461024b5780639dc29fac14610269578063a9059cbb14610285578063dd62ed3e146102b5576100ea565b806354979b8d146101e157806370a08231146101fd5780638da5cb5b1461022d576100ea565b806323b872dd116100c857806323b872dd1461015b5780632af4c31e1461018b578063313ce567146101a757806340c10f19146101c5576100ea565b806306fdde03146100ef578063095ea7b31461010d57806318160ddd1461013d575b600080fd5b6100f76102e5565b6040516101049190610fed565b60405180910390f35b610127600480360381019061012291906110a8565b610373565b6040516101349190611103565b60405180910390f35b610145610465565b604051610152919061112d565b60405180910390f35b61017560048036038101906101709190611148565b61046b565b6040516101829190611103565b60405180910390f35b6101a560048036038101906101a0919061119b565b61079d565b005b6101af610871565b6040516101bc919061112d565b60405180910390f35b6101df60048036038101906101da91906110a8565b610877565b005b6101fb60048036038101906101f6919061119b565b610a3a565b005b6102176004803603810190610212919061119b565b610b25565b604051610224919061112d565b60405180910390f35b610235610b3d565b60405161024291906111d7565b60405180910390f35b610253610b63565b6040516102609190610fed565b60405180910390f35b610283600480360381019061027e91906110a8565b610bf1565b005b61029f600480360381019061029a91906110a8565b610d59565b6040516102ac9190611103565b60405180910390f35b6102cf60048036038101906102ca91906111f2565b610f38565b6040516102dc919061112d565b60405180910390f35b600480546102f290611261565b80601f016020809104026020016040519081016040528092919081815260200182805461031e90611261565b801561036b5780601f106103405761010080835404028352916020019161036b565b820191906000526020600020905b81548152906001019060200180831161034e57829003601f168201915b505050505081565b600081600160003373ffffffffffffffffffffffffffffffffffffffff1673ffffffffffffffffffffffffffffffffffffffff16815260200190815260200160002060008573ffffffffffffffffffffffffffffffffffffffff1673ffffffffffffffffffffffffffffffffffffffff168152602001908152602001600020819055508273ffffffffffffffffffffffffffffffffffffffff163373ffffffffffffffffffffffffffffffffffffffff167f8c5be1e5ebec7d5bd14f71427d1e84f3dd0314c0f7b2291e5b200ac8c7c3b92584604051610453919061112d565b60405180910390a36001905092915050565b60075481565b60008060008573ffffffffffffffffffffffffffffffffffffffff1673ffffffffffffffffffffffffffffffffffffffff168152602001908152602001600020548211156104ee576040517f08c379a00000000000000000000000000000000000000000000000000000000081526004016104e5906112de565b60405180910390fd5b600160008573ffffffffffffffffffffffffffffffffffffffff1673ffffffffffffffffffffffffffffffffffffffff16815260200190815260200160002060003373ffffffffffffffffffffffffffffffffffffffff1673ffffffffffffffffffffffffffffffffffffffff168152602001908152602001600020548211156105ad576040517f08c379a00000000000000000000000000000000000000000000000000000000081526004016105a49061134a565b60405180910390fd5b600082116105f0576040517f08c379a00000000000000000000000000000000000000000000000000000000081526004016105e7906113b6565b60405180910390fd5b81600160008673ffffffffffffffffffffffffffffffffffffffff1673ffffffffffffffffffffffffffffffffffffffff16815260200190815260200160002060003373ffffffffffffffffffffffffffffffffffffffff1673ffffffffffffffffffffffffffffffffffffffff168152602001908152602001600020600082825461067c9190611405565b92505081905550816000808673ffffffffffffffffffffffffffffffffffffffff1673ffffffffffffffffffffffffffffffffffffffff16815260200190815260200160002060008282546106d19190611405565b92505081905550816000808573ffffffffffffffffffffffffffffffffffffffff1673ffffffffffffffffffffffffffffffffffffffff16815260200190815260200160002060008282546107269190611439565b925050819055508273ffffffffffffffffffffffffffffffffffffffff168473ffffffffffffffffffffffffffffffffffffffff167fddf252ad1be2c89b69c2b068fc378daa952ba7f163c4a11628f55a4df523b3ef8460405161078a919061112d565b60405180910390a3600190509392505050565b600360009054906101000a900473ffffffffffffffffffffffffffffffffffffffff1673ffffffffffffffffffffffffffffffffffffffff163373ffffffffffffffffffffffffffffffffffffffff161461082d576040517f08c379a0000000000000000000000000000000000000000000000000000000008152600401610824906114df565b60405180910390fd5b80600360006101000a81548173ffffffffffffffffffffffffffffffffffffffff021916908373ffffffffffffffffffffffffffffffffffffffff16021790555050565b60065481565b600360009054906101000a900473ffffffffffffffffffffffffffffffffffffffff1673ffffffffffffffffffffffffffffffffffffffff163373ffffffffffffffffffffffffffffffffffffffff161480610923575060011515600260003373ffffffffffffffffffffffffffffffffffffffff1673ffffffffffffffffffffffffffffffffffffffff16815260200190815260200160002060009054906101000a900460ff161515145b610962576040517f08c379a00000000000000000000000000000000000000000000000000000000081526004016109599061154b565b60405180910390fd5b80600760008282546109749190611439565b92505081905550806000808473ffffffffffffffffffffffffffffffffffffffff1673ffffffffffffffffffffffffffffffffffffffff16815260200190815260200160002060008282546109c99190611439565b925050819055508173ffffffffffffffffffffffffffffffffffffffff16600073ffffffffffffffffffffffffffffffffffffffff167fddf252ad1be2c89b69c2b068fc378daa952ba7f163c4a11628f55a4df523b3ef83604051610a2e919061112d565b60405180910390a35050565b600360009054906101000a900473ffffffffffffffffffffffffffffffffffffffff1673ffffffffffffffffffffffffffffffffffffffff163373ffffffffffffffffffffffffffffffffffffffff1614610aca576040517f08c379a0000000000000000000000000000000000000000000000000000000008152600401610ac1906115b7565b60405180910390fd5b6001600260008373ffffffffffffffffffffffffffffffffffffffff1673ffffffffffffffffffffffffffffffffffffffff16815260200190815260200160002060006101000a81548160ff02191690831515021790555050565b60006020528060005260406000206000915090505481565b600360009054906101000a900473ffffffffffffffffffffffffffffffffffffffff1681565b60058054610b7090611261565b80601f0160208091040260200160405190810160405280929190818152602001828054610b9c90611261565b8015610be95780601f10610bbe57610100808354040283529160200191610be9565b820191906000526020600020905b815481529060010190602001808311610bcc57829003601f168201915b505050505081565b600360009054906101000a900473ffffffffffffffffffffffffffffffffffffffff1673ffffffffffffffffffffffffffffffffffffffff163373ffffffffffffffffffffffffffffffffffffffff1614610c81576040517f08c379a0000000000000000000000000000000000000000000000000000000008152600401610c789061154b565b60405180910390fd5b8060076000828254610c939190611405565b92505081905550806000808473ffffffffffffffffffffffffffffffffffffffff1673ffffffffffffffffffffffffffffffffffffffff1681526020019081526020016000206000828254610ce89190611405565b92505081905550600073ffffffffffffffffffffffffffffffffffffffff168273ffffffffffffffffffffffffffffffffffffffff167fddf252ad1be2c89b69c2b068fc378daa952ba7f163c4a11628f55a4df523b3ef83604051610d4d919061112d565b60405180910390a35050565b60008060003373ffffffffffffffffffffffffffffffffffffffff1673ffffffffffffffffffffffffffffffffffffffff16815260200190815260200160002054821115610ddc576040517f08c379a0000000000000000000000000000000000000000000000000000000008152600401610dd3906112de565b60405180910390fd5b60008211610e1f576040517f08c379a0000000000000000000000000000000000000000000000000000000008152600401610e16906113b6565b60405180910390fd5b816000808573ffffffffffffffffffffffffffffffffffffffff1673ffffffffffffffffffffffffffffffffffffffff1681526020019081526020016000206000828254610e6d9190611439565b92505081905550816000803373ffffffffffffffffffffffffffffffffffffffff1673ffffffffffffffffffffffffffffffffffffffff1681526020019081526020016000206000828254610ec29190611405565b925050819055508273ffffffffffffffffffffffffffffffffffffffff163373ffffffffffffffffffffffffffffffffffffffff167fddf252ad1be2c89b69c2b068fc378daa952ba7f163c4a11628f55a4df523b3ef84604051610f26919061112d565b60405180910390a36001905092915050565b6001602052816000526040600020602052806000526040600020600091509150505481565b600081519050919050565b600082825260208201905092915050565b60005b83811015610f97578082015181840152602081019050610f7c565b60008484015250505050565b6000601f19601f8301169050919050565b6000610fbf82610f5d565b610fc98185610f68565b9350610fd9818560208601610f79565b610fe281610fa3565b840191505092915050565b600060208201905081810360008301526110078184610fb4565b905092915050565b600080fd5b600073ffffffffffffffffffffffffffffffffffffffff82169050919050565b600061103f82611014565b9050919050565b61104f81611034565b811461105a57600080fd5b50565b60008135905061106c81611046565b92915050565b6000819050919050565b61108581611072565b811461109057600080fd5b50565b6000813590506110a28161107c565b92915050565b600080604083850312156110bf576110be61100f565b5b60006110cd8582860161105d565b92505060206110de85828601611093565b9150509250929050565b60008115159050919050565b6110fd816110e8565b82525050565b600060208201905061111860008301846110f4565b92915050565b61112781611072565b82525050565b6000602082019050611142600083018461111e565b92915050565b6000806000606084860312156111615761116061100f565b5b600061116f8682870161105d565b93505060206111808682870161105d565b925050604061119186828701611093565b9150509250925092565b6000602082840312156111b1576111b061100f565b5b60006111bf8482850161105d565b91505092915050565b6111d181611034565b82525050565b60006020820190506111ec60008301846111c8565b92915050565b600080604083850312156112095761120861100f565b5b60006112178582860161105d565b92505060206112288582860161105d565b9150509250929050565b7f4e487b7100000000000000000000000000000000000000000000000000000000600052602260045260246000fd5b6000600282049050600182168061127957607f821691505b60208210810361128c5761128b611232565b5b50919050565b7f4e6f7420656e6f756768206d6f6e657900000000000000000000000000000000600082015250565b60006112c8601083610f68565b91506112d382611292565b602082019050919050565b600060208201905081810360008301526112f7816112bb565b9050919050565b7f4e6f7420616c6c6f77616e636500000000000000000000000000000000000000600082015250565b6000611334600d83610f68565b915061133f826112fe565b602082019050919050565b6000602082019050818103600083015261136381611327565b9050919050565b7f56616c7565206d7573742062652067726561746572207468616e203000000000600082015250565b60006113a0601c83610f68565b91506113ab8261136a565b602082019050919050565b600060208201905081810360008301526113cf81611393565b9050919050565b7f4e487b7100000000000000000000000000000000000000000000000000000000600052601160045260246000fd5b600061141082611072565b915061141b83611072565b9250828203905081811115611433576114326113d6565b5b92915050565b600061144482611072565b915061144f83611072565b9250828201905080821115611467576114666113d6565b5b92915050565b7f4f6e6c79206f776e65722063616e206368616e6765206f776e6572736869702060008201527f6f6620546f6b656e000000000000000000000000000000000000000000000000602082015250565b60006114c9602883610f68565b91506114d48261146d565b604082019050919050565b600060208201905081810360008301526114f8816114bc565b9050919050565b7f596f7520617265206e6f74206f776e6572206f66207468697320546f6b656e00600082015250565b6000611535601f83610f68565b9150611540826114ff565b602082019050919050565b6000602082019050818103600083015261156481611528565b9050919050565b7f596f7520617265206e6f74206f776e6572000000000000000000000000000000600082015250565b60006115a1601183610f68565b91506115ac8261156b565b602082019050919050565b600060208201905081810360008301526115d081611594565b905091905056fea264697066735822122065d83272b80f8b370cc77f6918daeeddac02c63c5ebd9b2d4f5341f72e0a89c864736f6c63430008130033",
  "immutableReferences": {},
  "source": "// SPDX-License-Identifier: MIT\r\npragma solidity ^0.8.18;\r\n\r\ncontract ERC20 {\r\n\r\n    event Transfer(address indexed _from, address indexed _to, uint256 _value);\r\n    event Approval(address indexed _owner, address indexed _spender, uint256 _value);\r\n\r\n    mapping(address => uint256) public balanceOf;\r\n    mapping(address => mapping(address => uint256)) public allowance;\r\n    mapping(address => bool) private canMint;\r\n\r\n    address public owner;\r\n    string public name;\r\n    string public symbol;\r\n    uint256 public decimals;\r\n\r\n    uint256 public totalSupply;\r\n\r\n    constructor(string memory _name,string memory _symbol, uint256 _decimals) {\r\n        name = _name;\r\n        symbol = _symbol;\r\n        owner = msg.sender;\r\n        decimals = _decimals;\r\n    }\r\n\r\n    function changeOwnership(address userChangToAddr) external {\r\n        require(msg.sender == owner,\"Only owner can change ownership of Token\");\r\n        owner = userChangToAddr;\r\n    }\r\n\r\n    function transfer(address _to, uint256 _value) external returns (bool success) {\r\n        require(_value <= balanceOf[msg.sender], \"Not enough money\");\r\n        require(_value > 0, \"Value must be greater than 0\");\r\n        balanceOf[_to] += _value;\r\n        balanceOf[msg.sender] -= _value;\r\n        emit Transfer(msg.sender, _to, _value);\r\n        return true;\r\n    }\r\n    function transferFrom(address _from, address _to, uint256 _value) external returns (bool success) {\r\n        require(_value <= balanceOf[_from], \"Not enough money\");\r\n        require(_value <= allowance[_from][msg.sender],\"Not allowance\");\r\n        require(_value > 0, \"Value must be greater than 0\");\r\n        allowance[_from][msg.sender] -= _value;\r\n        balanceOf[_from] -= _value;\r\n        balanceOf[_to] += _value;\r\n        emit Transfer(_from, _to, _value);\r\n        return true;\r\n    }\r\n\r\n    function approve(address _spender, uint256 _value) external returns (bool success) {\r\n        allowance[msg.sender][_spender] = _value;\r\n        emit Approval(msg.sender, _spender, _value);\r\n        return true;\r\n    }\r\n\r\n    function mint(address to, uint256 amount) external {\r\n        require(msg.sender == owner || canMint[msg.sender] == true, \"You are not owner of this Token\");\r\n        totalSupply += amount;\r\n        balanceOf[to] += amount;\r\n        emit Transfer(address(0), to, amount);\r\n    }\r\n    function burn(address from, uint256 amount) external {\r\n        require(msg.sender == owner, \"You are not owner of this Token\");\r\n        //* (10 ** decimals)\r\n        totalSupply -= amount;\r\n        balanceOf[from] -= amount;\r\n        emit Transfer(from, address(0), amount);\r\n    }\r\n    function canMintAdd(address allowed) external {\r\n        require(msg.sender == owner, \"You are not owner\");\r\n        canMint[allowed] = true;\r\n    }\r\n}",
  "sourcePath": "C:\\Users\\Admin\\Desktop\\2025_B2\\Etherium\\try\\contracts\\ERC20.sol",
  "compiler": {
    "name": "solc",
    "version": "0.8.19+commit.7dd6d404.Emscripten.clang"
  },
  "schemaVersion": "3.4.16",
  "updatedAt": "2025-02-18T11:31:15.112Z",
  "devdoc": {
    "kind": "dev",
    "methods": {},
    "version": 1
  },
  "userdoc": {
    "kind": "user",
    "methods": {},
    "version": 1
  }
}