{
  "contractName": "Factory",
  "abi": [
    {
      "inputs": [
        {
          "internalType": "uint256",
          "name": "_LPTokenPrice",
          "type": "uint256"
        },
        {
          "internalType": "address",
          "name": "_LPTokenAddr",
          "type": "address"
        }
      ],
      "stateMutability": "nonpayable",
      "type": "constructor"
    },
    {
      "inputs": [
        {
          "internalType": "uint256",
          "name": "",
          "type": "uint256"
        }
      ],
      "name": "pools",
      "outputs": [
        {
          "internalType": "address",
          "name": "",
          "type": "address"
        }
      ],
      "stateMutability": "view",
      "type": "function"
    },
    {
      "inputs": [
        {
          "internalType": "address",
          "name": "token1",
          "type": "address"
        },
        {
          "internalType": "address",
          "name": "token2",
          "type": "address"
        },
        {
          "internalType": "string",
          "name": "poolName",
          "type": "string"
        }
      ],
      "name": "createPool",
      "outputs": [],
      "stateMutability": "nonpayable",
      "type": "function"
    },
    {
      "inputs": [],
      "name": "getAllPool",
      "outputs": [
        {
          "internalType": "address[]",
          "name": "_pools",
          "type": "address[]"
        }
      ],
      "stateMutability": "view",
      "type": "function"
    }
  ],
  "bytecode": "0x608060405234801561001057600080fd5b506040516128af3803806128af8339818101604052810190610032919061011a565b8160018190555080600260006101000a81548173ffffffffffffffffffffffffffffffffffffffff021916908373ffffffffffffffffffffffffffffffffffffffff160217905550505061015a565b600080fd5b6000819050919050565b61009981610086565b81146100a457600080fd5b50565b6000815190506100b681610090565b92915050565b600073ffffffffffffffffffffffffffffffffffffffff82169050919050565b60006100e7826100bc565b9050919050565b6100f7816100dc565b811461010257600080fd5b50565b600081519050610114816100ee565b92915050565b6000806040838503121561013157610130610081565b5b600061013f858286016100a7565b925050602061015085828601610105565b9150509250929050565b612746806101696000396000f3fe60806040523480156200001157600080fd5b5060043610620000465760003560e01c8063a20a4cb4146200004b578063ac4afa38146200006d578063f1935fac14620000a3575b600080fd5b62000055620000c3565b60405162000064919062000410565b60405180910390f35b6200008b600480360381019062000085919062000483565b62000153565b6040516200009a9190620004c6565b60405180910390f35b620000c16004803603810190620000bb919062000676565b62000193565b005b606060008054806020026020016040519081016040528092919081815260200182805480156200014957602002820191906000526020600020905b8160009054906101000a900473ffffffffffffffffffffffffffffffffffffffff1673ffffffffffffffffffffffffffffffffffffffff1681526020019060010190808311620000fe575b5050505050905090565b600081815481106200016457600080fd5b906000526020600020016000915054906101000a900473ffffffffffffffffffffffffffffffffffffffff1681565b6000600154600260009054906101000a900473ffffffffffffffffffffffffffffffffffffffff163330878787604051620001ce9062000300565b620001e097969594939291906200078b565b604051809103906000f080158015620001fd573d6000803e3d6000fd5b5090506000819080600181540180825580915050600190039060005260206000200160009091909190916101000a81548173ffffffffffffffffffffffffffffffffffffffff021916908373ffffffffffffffffffffffffffffffffffffffff1602179055506000600260009054906101000a900473ffffffffffffffffffffffffffffffffffffffff1690508073ffffffffffffffffffffffffffffffffffffffff166354979b8d836040518263ffffffff1660e01b8152600401620002c59190620004c6565b600060405180830381600087803b158015620002e057600080fd5b505af1158015620002f5573d6000803e3d6000fd5b505050505050505050565b611f01806200081083390190565b600081519050919050565b600082825260208201905092915050565b6000819050602082019050919050565b600073ffffffffffffffffffffffffffffffffffffffff82169050919050565b600062000367826200033a565b9050919050565b62000379816200035a565b82525050565b60006200038d83836200036e565b60208301905092915050565b6000602082019050919050565b6000620003b3826200030e565b620003bf818562000319565b9350620003cc836200032a565b8060005b8381101562000403578151620003e788826200037f565b9750620003f48362000399565b925050600181019050620003d0565b5085935050505092915050565b600060208201905081810360008301526200042c8184620003a6565b905092915050565b6000604051905090565b600080fd5b600080fd5b6000819050919050565b6200045d8162000448565b81146200046957600080fd5b50565b6000813590506200047d8162000452565b92915050565b6000602082840312156200049c576200049b6200043e565b5b6000620004ac848285016200046c565b91505092915050565b620004c0816200035a565b82525050565b6000602082019050620004dd6000830184620004b5565b92915050565b620004ee816200035a565b8114620004fa57600080fd5b50565b6000813590506200050e81620004e3565b92915050565b600080fd5b600080fd5b6000601f19601f8301169050919050565b7f4e487b7100000000000000000000000000000000000000000000000000000000600052604160045260246000fd5b62000569826200051e565b810181811067ffffffffffffffff821117156200058b576200058a6200052f565b5b80604052505050565b6000620005a062000434565b9050620005ae82826200055e565b919050565b600067ffffffffffffffff821115620005d157620005d06200052f565b5b620005dc826200051e565b9050602081019050919050565b82818337600083830152505050565b60006200060f6200060984620005b3565b62000594565b9050828152602081018484840111156200062e576200062d62000519565b5b6200063b848285620005e9565b509392505050565b600082601f8301126200065b576200065a62000514565b5b81356200066d848260208601620005f8565b91505092915050565b6000806000606084860312156200069257620006916200043e565b5b6000620006a286828701620004fd565b9350506020620006b586828701620004fd565b925050604084013567ffffffffffffffff811115620006d957620006d862000443565b5b620006e78682870162000643565b9150509250925092565b620006fc8162000448565b82525050565b600081519050919050565b600082825260208201905092915050565b60005b838110156200073e57808201518184015260208101905062000721565b60008484015250505050565b6000620007578262000702565b6200076381856200070d565b9350620007758185602086016200071e565b62000780816200051e565b840191505092915050565b600060e082019050620007a2600083018a620006f1565b620007b16020830189620004b5565b620007c06040830188620004b5565b620007cf6060830187620004b5565b620007de6080830186620004b5565b620007ed60a0830185620004b5565b81810360c08301526200080181846200074a565b90509897505050505050505056fe60806040523480156200001157600080fd5b5060405162001f0138038062001f018339818101604052810190620000379190620004bb565b600073ffffffffffffffffffffffffffffffffffffffff168673ffffffffffffffffffffffffffffffffffffffff1614158015620000a25750600073ffffffffffffffffffffffffffffffffffffffff168373ffffffffffffffffffffffffffffffffffffffff1614155b8015620000dc5750600073ffffffffffffffffffffffffffffffffffffffff168273ffffffffffffffffffffffffffffffffffffffff1614155b6200011e576040517f08c379a00000000000000000000000000000000000000000000000000000000081526004016200011590620005ee565b60405180910390fd5b80600690816200012f919062000851565b50826000806101000a81548173ffffffffffffffffffffffffffffffffffffffff021916908373ffffffffffffffffffffffffffffffffffffffff16021790555081600160006101000a81548173ffffffffffffffffffffffffffffffffffffffff021916908373ffffffffffffffffffffffffffffffffffffffff16021790555083600560006101000a81548173ffffffffffffffffffffffffffffffffffffffff021916908373ffffffffffffffffffffffffffffffffffffffff16021790555085600760006101000a81548173ffffffffffffffffffffffffffffffffffffffff021916908373ffffffffffffffffffffffffffffffffffffffff1602179055508660088190555084600460006101000a81548173ffffffffffffffffffffffffffffffffffffffff021916908373ffffffffffffffffffffffffffffffffffffffff1602179055505050505050505062000938565b6000604051905090565b600080fd5b600080fd5b6000819050919050565b620002b1816200029c565b8114620002bd57600080fd5b50565b600081519050620002d181620002a6565b92915050565b600073ffffffffffffffffffffffffffffffffffffffff82169050919050565b60006200030482620002d7565b9050919050565b6200031681620002f7565b81146200032257600080fd5b50565b60008151905062000336816200030b565b92915050565b600080fd5b600080fd5b6000601f19601f8301169050919050565b7f4e487b7100000000000000000000000000000000000000000000000000000000600052604160045260246000fd5b620003918262000346565b810181811067ffffffffffffffff82111715620003b357620003b262000357565b5b80604052505050565b6000620003c862000288565b9050620003d6828262000386565b919050565b600067ffffffffffffffff821115620003f957620003f862000357565b5b620004048262000346565b9050602081019050919050565b60005b838110156200043157808201518184015260208101905062000414565b60008484015250505050565b6000620004546200044e84620003db565b620003bc565b90508281526020810184848401111562000473576200047262000341565b5b6200048084828562000411565b509392505050565b600082601f830112620004a0576200049f6200033c565b5b8151620004b28482602086016200043d565b91505092915050565b600080600080600080600060e0888a031215620004dd57620004dc62000292565b5b6000620004ed8a828b01620002c0565b9750506020620005008a828b0162000325565b9650506040620005138a828b0162000325565b9550506060620005268a828b0162000325565b9450506080620005398a828b0162000325565b93505060a06200054c8a828b0162000325565b92505060c088015167ffffffffffffffff81111562000570576200056f62000297565b5b6200057e8a828b0162000488565b91505092959891949750929550565b600082825260208201905092915050565b7f496e76616c696420616464726573730000000000000000000000000000000000600082015250565b6000620005d6600f836200058d565b9150620005e3826200059e565b602082019050919050565b600060208201905081810360008301526200060981620005c7565b9050919050565b600081519050919050565b7f4e487b7100000000000000000000000000000000000000000000000000000000600052602260045260246000fd5b600060028204905060018216806200066357607f821691505b6020821081036200067957620006786200061b565b5b50919050565b60008190508160005260206000209050919050565b60006020601f8301049050919050565b600082821b905092915050565b600060088302620006e37fffffffffffffffffffffffffffffffffffffffffffffffffffffffffffffffff82620006a4565b620006ef8683620006a4565b95508019841693508086168417925050509392505050565b6000819050919050565b6000620007326200072c62000726846200029c565b62000707565b6200029c565b9050919050565b6000819050919050565b6200074e8362000711565b620007666200075d8262000739565b848454620006b1565b825550505050565b600090565b6200077d6200076e565b6200078a81848462000743565b505050565b5b81811015620007b257620007a660008262000773565b60018101905062000790565b5050565b601f8211156200080157620007cb816200067f565b620007d68462000694565b81016020851015620007e6578190505b620007fe620007f58562000694565b8301826200078f565b50505b505050565b600082821c905092915050565b6000620008266000198460080262000806565b1980831691505092915050565b600062000841838362000813565b9150826002028217905092915050565b6200085c8262000610565b67ffffffffffffffff81111562000878576200087762000357565b5b6200088482546200064a565b62000891828285620007b6565b600060209050601f831160018114620008c95760008415620008b4578287015190505b620008c0858262000833565b86555062000930565b601f198416620008d9866200067f565b60005b828110156200090357848901518255600182019150602085019450602081019050620008dc565b868310156200092357848901516200091f601f89168262000813565b8355505b6001600288020188555050505b505050505050565b6115b980620009486000396000f3fe608060405234801561001057600080fd5b50600436106100b45760003560e01c8063c457fb3711610071578063c457fb3714610169578063c45a015514610199578063c464d4a0146101b7578063d21220a7146101d5578063e5c65cf6146101f3578063f3466dfa14610211576100b4565b80630833f8cd146100b957806325be124e146100d75780634cd875ad146100f5578063513e6efb146101135780638da5cb5b1461012f578063a4563fdd1461014d575b600080fd5b6100c161022f565b6040516100ce9190610ef4565b60405180910390f35b6100df610255565b6040516100ec9190610ef4565b60405180910390f35b6100fd61027b565b60405161010a9190610f28565b60405180910390f35b61012d60048036038101906101289190610f74565b610281565b005b6101376108d1565b6040516101449190610ef4565b60405180910390f35b61016760048036038101906101629190610f74565b6108f7565b005b610183600480360381019061017e9190610fb4565b610bb4565b6040516101909190610f28565b60405180910390f35b6101a1610dcf565b6040516101ae9190611040565b60405180910390f35b6101bf610df5565b6040516101cc9190610f28565b60405180910390f35b6101dd610dfb565b6040516101ea9190610ef4565b60405180910390f35b6101fb610e1f565b6040516102089190610f28565b60405180910390f35b610219610e25565b60405161022691906110eb565b60405180910390f35b600760009054906101000a900473ffffffffffffffffffffffffffffffffffffffff1681565b600160009054906101000a900473ffffffffffffffffffffffffffffffffffffffff1681565b60025481565b80600081116102c5576040517f08c379a00000000000000000000000000000000000000000000000000000000081526004016102bc9061117f565b60405180910390fd5b60008060009054906101000a900473ffffffffffffffffffffffffffffffffffffffff1673ffffffffffffffffffffffffffffffffffffffff166318160ddd6040518163ffffffff1660e01b8152600401602060405180830381865afa158015610333573d6000803e3d6000fd5b505050506040513d601f19601f8201168201806040525081019061035791906111b4565b90506000600160009054906101000a900473ffffffffffffffffffffffffffffffffffffffff1673ffffffffffffffffffffffffffffffffffffffff166318160ddd6040518163ffffffff1660e01b8152600401602060405180830381865afa1580156103c8573d6000803e3d6000fd5b505050506040513d601f19601f820116820180604052508101906103ec91906111b4565b9050600185036105ea576000600254826104069190611210565b60035484876104159190611210565b61041f9190611210565b6104299190611281565b9050806003541015610470576040517f08c379a0000000000000000000000000000000000000000000000000000000008152600401610467906112fe565b60405180910390fd5b60008054906101000a900473ffffffffffffffffffffffffffffffffffffffff1673ffffffffffffffffffffffffffffffffffffffff166323b872dd3330886040518463ffffffff1660e01b81526004016104cd9392919061131e565b6020604051808303816000875af11580156104ec573d6000803e3d6000fd5b505050506040513d601f19601f82011682018060405250810190610510919061138d565b50600160009054906101000a900473ffffffffffffffffffffffffffffffffffffffff1673ffffffffffffffffffffffffffffffffffffffff1663a9059cbb33836040518363ffffffff1660e01b815260040161056e9291906113ba565b6020604051808303816000875af115801561058d573d6000803e3d6000fd5b505050506040513d601f19601f820116820180604052508101906105b1919061138d565b5084600260008282546105c491906113e3565b9250508190555080600360008282546105dd9190611417565b9250508190555050610822565b600285036107e6576000600354836106029190611210565b60025483876106119190611210565b61061b9190611210565b6106259190611281565b905080600254101561066c576040517f08c379a0000000000000000000000000000000000000000000000000000000008152600401610663906112fe565b60405180910390fd5b600160009054906101000a900473ffffffffffffffffffffffffffffffffffffffff1673ffffffffffffffffffffffffffffffffffffffff166323b872dd3330886040518463ffffffff1660e01b81526004016106cb9392919061131e565b6020604051808303816000875af11580156106ea573d6000803e3d6000fd5b505050506040513d601f19601f8201168201806040525081019061070e919061138d565b5060008054906101000a900473ffffffffffffffffffffffffffffffffffffffff1673ffffffffffffffffffffffffffffffffffffffff1663a9059cbb33836040518363ffffffff1660e01b815260040161076a9291906113ba565b6020604051808303816000875af1158015610789573d6000803e3d6000fd5b505050506040513d601f19601f820116820180604052508101906107ad919061138d565b5084600360008282546107c091906113e3565b9250508190555080600260008282546107d99190611417565b9250508190555050610821565b6040517f08c379a000000000000000000000000000000000000000000000000000000000815260040161081890611497565b60405180910390fd5b5b6000600854856108329190611281565b90506000600760009054906101000a900473ffffffffffffffffffffffffffffffffffffffff1690508073ffffffffffffffffffffffffffffffffffffffff166340c10f1930846040518363ffffffff1660e01b81526004016108969291906113ba565b600060405180830381600087803b1580156108b057600080fd5b505af11580156108c4573d6000803e3d6000fd5b5050505050505050505050565b600460009054906101000a900473ffffffffffffffffffffffffffffffffffffffff1681565b816000811161093b576040517f08c379a00000000000000000000000000000000000000000000000000000000081526004016109329061117f565b60405180910390fd5b60018203610a025760008054906101000a900473ffffffffffffffffffffffffffffffffffffffff1673ffffffffffffffffffffffffffffffffffffffff166323b872dd3330866040518463ffffffff1660e01b81526004016109a09392919061131e565b6020604051808303816000875af11580156109bf573d6000803e3d6000fd5b505050506040513d601f19601f820116820180604052508101906109e3919061138d565b5082600260008282546109f691906113e3565b92505081905550610b07565b60028203610acb57600160009054906101000a900473ffffffffffffffffffffffffffffffffffffffff1673ffffffffffffffffffffffffffffffffffffffff166323b872dd3330866040518463ffffffff1660e01b8152600401610a699392919061131e565b6020604051808303816000875af1158015610a88573d6000803e3d6000fd5b505050506040513d601f19601f82011682018060405250810190610aac919061138d565b508260036000828254610abf91906113e3565b92505081905550610b06565b6040517f08c379a0000000000000000000000000000000000000000000000000000000008152600401610afd90611503565b60405180910390fd5b5b600060085484610b179190611281565b90506000600760009054906101000a900473ffffffffffffffffffffffffffffffffffffffff1690508073ffffffffffffffffffffffffffffffffffffffff166340c10f1933846040518363ffffffff1660e01b8152600401610b7b9291906113ba565b600060405180830381600087803b158015610b9557600080fd5b505af1158015610ba9573d6000803e3d6000fd5b505050505050505050565b6000806000905060008060009054906101000a900473ffffffffffffffffffffffffffffffffffffffff1673ffffffffffffffffffffffffffffffffffffffff166318160ddd6040518163ffffffff1660e01b8152600401602060405180830381865afa158015610c29573d6000803e3d6000fd5b505050506040513d601f19601f82011682018060405250810190610c4d91906111b4565b90506000600160009054906101000a900473ffffffffffffffffffffffffffffffffffffffff1673ffffffffffffffffffffffffffffffffffffffff166318160ddd6040518163ffffffff1660e01b8152600401602060405180830381865afa158015610cbe573d6000803e3d6000fd5b505050506040513d601f19601f82011682018060405250810190610ce291906111b4565b905060008214158015610cf6575060008114155b15610dc25781600254610d099190611210565b83610d1491906113e3565b925080600354610d249190611210565b83610d2f91906113e3565b925060018503610d5c5781600254610d479190611210565b83610d529190611281565b9350505050610dca565b60028503610d875780600354610d729190611210565b83610d7d9190611281565b9350505050610dca565b6040517f08c379a0000000000000000000000000000000000000000000000000000000008152600401610db990611497565b60405180910390fd5b600093505050505b919050565b600560009054906101000a900473ffffffffffffffffffffffffffffffffffffffff1681565b60085481565b60008054906101000a900473ffffffffffffffffffffffffffffffffffffffff1681565b60035481565b60068054610e3290611552565b80601f0160208091040260200160405190810160405280929190818152602001828054610e5e90611552565b8015610eab5780601f10610e8057610100808354040283529160200191610eab565b820191906000526020600020905b815481529060010190602001808311610e8e57829003601f168201915b505050505081565b600073ffffffffffffffffffffffffffffffffffffffff82169050919050565b6000610ede82610eb3565b9050919050565b610eee81610ed3565b82525050565b6000602082019050610f096000830184610ee5565b92915050565b6000819050919050565b610f2281610f0f565b82525050565b6000602082019050610f3d6000830184610f19565b92915050565b600080fd5b610f5181610f0f565b8114610f5c57600080fd5b50565b600081359050610f6e81610f48565b92915050565b60008060408385031215610f8b57610f8a610f43565b5b6000610f9985828601610f5f565b9250506020610faa85828601610f5f565b9150509250929050565b600060208284031215610fca57610fc9610f43565b5b6000610fd884828501610f5f565b91505092915050565b6000819050919050565b6000611006611001610ffc84610eb3565b610fe1565b610eb3565b9050919050565b600061101882610feb565b9050919050565b600061102a8261100d565b9050919050565b61103a8161101f565b82525050565b60006020820190506110556000830184611031565b92915050565b600081519050919050565b600082825260208201905092915050565b60005b8381101561109557808201518184015260208101905061107a565b60008484015250505050565b6000601f19601f8301169050919050565b60006110bd8261105b565b6110c78185611066565b93506110d7818560208601611077565b6110e0816110a1565b840191505092915050565b6000602082019050818103600083015261110581846110b2565b905092915050565b7f596f752063616e2774206765742074686520546f6b656e20696e20746865205060008201527f6f6f6c2077697468206e6f20616d6f756e740000000000000000000000000000602082015250565b6000611169603283611066565b91506111748261110d565b604082019050919050565b600060208201905081810360008301526111988161115c565b9050919050565b6000815190506111ae81610f48565b92915050565b6000602082840312156111ca576111c9610f43565b5b60006111d88482850161119f565b91505092915050565b7f4e487b7100000000000000000000000000000000000000000000000000000000600052601160045260246000fd5b600061121b82610f0f565b915061122683610f0f565b925082820261123481610f0f565b9150828204841483151761124b5761124a6111e1565b5b5092915050565b7f4e487b7100000000000000000000000000000000000000000000000000000000600052601260045260246000fd5b600061128c82610f0f565b915061129783610f0f565b9250826112a7576112a6611252565b5b828204905092915050565b7f4e6f7420656e6f75676820746f6b656e7320696e2074686520706f6f6c000000600082015250565b60006112e8601d83611066565b91506112f3826112b2565b602082019050919050565b60006020820190508181036000830152611317816112db565b9050919050565b60006060820190506113336000830186610ee5565b6113406020830185610ee5565b61134d6040830184610f19565b949350505050565b60008115159050919050565b61136a81611355565b811461137557600080fd5b50565b60008151905061138781611361565b92915050565b6000602082840312156113a3576113a2610f43565b5b60006113b184828501611378565b91505092915050565b60006040820190506113cf6000830185610ee5565b6113dc6020830184610f19565b9392505050565b60006113ee82610f0f565b91506113f983610f0f565b9250828201905080821115611411576114106111e1565b5b92915050565b600061142282610f0f565b915061142d83610f0f565b9250828203905081811115611445576114446111e1565b5b92915050565b7f496e76616c6964204e756d000000000000000000000000000000000000000000600082015250565b6000611481600b83611066565b915061148c8261144b565b602082019050919050565b600060208201905081810360008301526114b081611474565b9050919050565b7f54686973206e756d20646f736e74206578697374000000000000000000000000600082015250565b60006114ed601483611066565b91506114f8826114b7565b602082019050919050565b6000602082019050818103600083015261151c816114e0565b9050919050565b7f4e487b7100000000000000000000000000000000000000000000000000000000600052602260045260246000fd5b6000600282049050600182168061156a57607f821691505b60208210810361157d5761157c611523565b5b5091905056fea26469706673582212203196a03951e093e2c53d7da50ef03bcca475e6c7ad6592c587fdbcac99dac36364736f6c63430008130033a264697066735822122034e5d586c1f24d50438cccc24c4ec4a1987fdd17bc4c44dc434d050eb5a052c864736f6c63430008130033",
  "immutableReferences": {},
  "source": "// SPDX-License-Identifier: MIT\r\npragma solidity ^0.8.18;\r\n\r\nimport \"./ERC20.sol\";\r\nimport \"./Pool.sol\";\r\n\r\ncontract Factory {\r\n\r\n    address[] public pools;\r\n\r\n    uint256 LPTokenPrice;\r\n    address LPTokenAddr;\r\n\r\n    constructor(uint256 _LPTokenPrice, address _LPTokenAddr){\r\n        LPTokenPrice = _LPTokenPrice;\r\n        LPTokenAddr = _LPTokenAddr;\r\n    }\r\n\r\n    function createPool(address token1, address token2, string memory poolName) public {\r\n        Pool a = new Pool(LPTokenPrice,LPTokenAddr,msg.sender,address(this),token1, token2, poolName);\r\n        pools.push(address(a));\r\n        ERC20 lptok = ERC20(LPTokenAddr);\r\n        lptok.canMintAdd(address(a));\r\n    }\r\n\r\n    function getAllPool() public view returns(address[] memory _pools) {\r\n        return pools;\r\n    }\r\n\r\n}\r\n",
  "sourcePath": "C:\\Users\\Admin\\Desktop\\2025_B2\\Etherium\\try\\contracts\\Factory.sol",
  "compiler": {
    "name": "solc",
    "version": "0.8.19+commit.7dd6d404.Emscripten.clang"
  },
  "schemaVersion": "3.4.16",
  "updatedAt": "2025-02-26T06:42:16.020Z",
  "devdoc": {
    "kind": "dev",
    "methods": {},
    "version": 1
  },
  "userdoc": {
    "kind": "user",
    "methods": {},
    "version": 1
  }
}