{
  "contractName": "Router",
  "abi": [
    {
      "inputs": [
        {
          "internalType": "address",
          "name": "_factory",
          "type": "address"
        }
      ],
      "stateMutability": "nonpayable",
      "type": "constructor"
    },
    {
      "inputs": [],
      "name": "factory",
      "outputs": [
        {
          "internalType": "contract Factory",
          "name": "",
          "type": "address"
        }
      ],
      "stateMutability": "view",
      "type": "function"
    },
    {
      "inputs": [
        {
          "internalType": "address",
          "name": "tokenIn",
          "type": "address"
        },
        {
          "internalType": "address",
          "name": "tokenOut",
          "type": "address"
        },
        {
          "internalType": "uint256",
          "name": "amountIn",
          "type": "uint256"
        }
      ],
      "name": "swapTokens",
      "outputs": [],
      "stateMutability": "nonpayable",
      "type": "function"
    }
  ],
  "bytecode": "0x60806040523480156200001157600080fd5b50604051620015b0380380620015b08339818101604052810190620000379190620000e8565b806000806101000a81548173ffffffffffffffffffffffffffffffffffffffff021916908373ffffffffffffffffffffffffffffffffffffffff160217905550506200011a565b600080fd5b600073ffffffffffffffffffffffffffffffffffffffff82169050919050565b6000620000b08262000083565b9050919050565b620000c281620000a3565b8114620000ce57600080fd5b50565b600081519050620000e281620000b7565b92915050565b6000602082840312156200010157620001006200007e565b5b60006200011184828501620000d1565b91505092915050565b611486806200012a6000396000f3fe608060405234801561001057600080fd5b50600436106100365760003560e01c8063c45a01551461003b578063ec6cc0cc14610059575b600080fd5b610043610075565b6040516100509190610d73565b60405180910390f35b610073600480360381019061006e9190610e16565b610099565b005b60008054906101000a900473ffffffffffffffffffffffffffffffffffffffff1681565b60008060006100a886866107c8565b9250925092506000829050600082905060008273ffffffffffffffffffffffffffffffffffffffff1663d21220a76040518163ffffffff1660e01b8152600401602060405180830381865afa158015610105573d6000803e3d6000fd5b505050506040513d601f19601f820116820180604052508101906101299190610e7e565b905060008273ffffffffffffffffffffffffffffffffffffffff1663d21220a76040518163ffffffff1660e01b8152600401602060405180830381865afa158015610178573d6000803e3d6000fd5b505050506040513d601f19601f8201168201806040525081019061019c9190610e7e565b905060008a73ffffffffffffffffffffffffffffffffffffffff166323b872dd33308c6040518463ffffffff1660e01b81526004016101dd93929190610ec9565b6020604051808303816000875af11580156101fc573d6000803e3d6000fd5b505050506040513d601f19601f820116820180604052508101906102209190610f38565b508a73ffffffffffffffffffffffffffffffffffffffff1663095ea7b3888b6040518363ffffffff1660e01b815260040161025c929190610f65565b6020604051808303816000875af115801561027b573d6000803e3d6000fd5b505050506040513d601f19601f8201168201806040525081019061029f9190610f38565b50888b73ffffffffffffffffffffffffffffffffffffffff166370a08231306040518263ffffffff1660e01b81526004016102da9190610f8e565b602060405180830381865afa1580156102f7573d6000803e3d6000fd5b505050506040513d601f19601f8201168201806040525081019061031b9190610fbe565b1461035b576040517f08c379a000000000000000000000000000000000000000000000000000000000815260040161035290611048565b60405180910390fd5b8273ffffffffffffffffffffffffffffffffffffffff168873ffffffffffffffffffffffffffffffffffffffff1614610401578473ffffffffffffffffffffffffffffffffffffffff1663513e6efb60018b6040518363ffffffff1660e01b81526004016103ca9291906110a3565b600060405180830381600087803b1580156103e457600080fd5b505af11580156103f8573d6000803e3d6000fd5b50505050610470565b8473ffffffffffffffffffffffffffffffffffffffff1663513e6efb60028b6040518363ffffffff1660e01b815260040161043d929190611107565b600060405180830381600087803b15801561045757600080fd5b505af115801561046b573d6000803e3d6000fd5b505050505b8773ffffffffffffffffffffffffffffffffffffffff166370a08231306040518263ffffffff1660e01b81526004016104a99190610f8e565b602060405180830381865afa1580156104c6573d6000803e3d6000fd5b505050506040513d601f19601f820116820180604052508101906104ea9190610fbe565b90506000811161052f576040517f08c379a00000000000000000000000000000000000000000000000000000000081526004016105269061117c565b60405180910390fd5b8773ffffffffffffffffffffffffffffffffffffffff1663095ea7b387836040518363ffffffff1660e01b815260040161056a929190610f65565b6020604051808303816000875af1158015610589573d6000803e3d6000fd5b505050506040513d601f19601f820116820180604052508101906105ad9190610f38565b508173ffffffffffffffffffffffffffffffffffffffff168873ffffffffffffffffffffffffffffffffffffffff1603610654578373ffffffffffffffffffffffffffffffffffffffff1663513e6efb6001836040518363ffffffff1660e01b815260040161061d9291906110a3565b600060405180830381600087803b15801561063757600080fd5b505af115801561064b573d6000803e3d6000fd5b505050506106c3565b8373ffffffffffffffffffffffffffffffffffffffff1663513e6efb6002836040518363ffffffff1660e01b8152600401610690929190611107565b600060405180830381600087803b1580156106aa57600080fd5b505af11580156106be573d6000803e3d6000fd5b505050505b8973ffffffffffffffffffffffffffffffffffffffff1663a9059cbb338c73ffffffffffffffffffffffffffffffffffffffff166370a08231306040518263ffffffff1660e01b81526004016107199190610f8e565b602060405180830381865afa158015610736573d6000803e3d6000fd5b505050506040513d601f19601f8201168201806040525081019061075a9190610fbe565b6040518363ffffffff1660e01b8152600401610777929190610f65565b6020604051808303816000875af1158015610796573d6000803e3d6000fd5b505050506040513d601f19601f820116820180604052508101906107ba9190610f38565b505050505050505050505050565b60008060008060008054906101000a900473ffffffffffffffffffffffffffffffffffffffff1673ffffffffffffffffffffffffffffffffffffffff1663a20a4cb46040518163ffffffff1660e01b8152600401600060405180830381865afa158015610839573d6000803e3d6000fd5b505050506040513d6000823e3d601f19601f8201168201806040525081019061086291906112f5565b905060005b8151811015610cb15760008282815181106108855761088461133e565b5b6020026020010151905060008173ffffffffffffffffffffffffffffffffffffffff1663d21220a76040518163ffffffff1660e01b8152600401602060405180830381865afa1580156108dc573d6000803e3d6000fd5b505050506040513d601f19601f820116820180604052508101906109009190610e7e565b905060008273ffffffffffffffffffffffffffffffffffffffff166325be124e6040518163ffffffff1660e01b8152600401602060405180830381865afa15801561094f573d6000803e3d6000fd5b505050506040513d601f19601f820116820180604052508101906109739190610e7e565b90508973ffffffffffffffffffffffffffffffffffffffff168273ffffffffffffffffffffffffffffffffffffffff1614806109da57508973ffffffffffffffffffffffffffffffffffffffff168173ffffffffffffffffffffffffffffffffffffffff16145b15610c9b578173ffffffffffffffffffffffffffffffffffffffff168a73ffffffffffffffffffffffffffffffffffffffff1603610a1a57809750610a52565b8073ffffffffffffffffffffffffffffffffffffffff168a73ffffffffffffffffffffffffffffffffffffffff1603610a51578197505b5b848481518110610a6557610a6461133e565b5b6020026020010151965060005b8551811015610c99576000868281518110610a9057610a8f61133e565b5b6020026020010151905060008173ffffffffffffffffffffffffffffffffffffffff1663d21220a76040518163ffffffff1660e01b8152600401602060405180830381865afa158015610ae7573d6000803e3d6000fd5b505050506040513d601f19601f82011682018060405250810190610b0b9190610e7e565b905060008273ffffffffffffffffffffffffffffffffffffffff166325be124e6040518163ffffffff1660e01b8152600401602060405180830381865afa158015610b5a573d6000803e3d6000fd5b505050506040513d601f19601f82011682018060405250810190610b7e9190610e7e565b90508b73ffffffffffffffffffffffffffffffffffffffff168273ffffffffffffffffffffffffffffffffffffffff16148015610be657508c73ffffffffffffffffffffffffffffffffffffffff168173ffffffffffffffffffffffffffffffffffffffff16145b80610c5357508c73ffffffffffffffffffffffffffffffffffffffff168273ffffffffffffffffffffffffffffffffffffffff16148015610c5257508b73ffffffffffffffffffffffffffffffffffffffff168173ffffffffffffffffffffffffffffffffffffffff16145b5b15610c8357888481518110610c6b57610c6a61133e565b5b60200260200101519950505050505050505050610ced565b5050508080610c919061139c565b915050610a72565b505b5050508080610ca99061139c565b915050610867565b506040517f08c379a0000000000000000000000000000000000000000000000000000000008152600401610ce490611430565b60405180910390fd5b9250925092565b600073ffffffffffffffffffffffffffffffffffffffff82169050919050565b6000819050919050565b6000610d39610d34610d2f84610cf4565b610d14565b610cf4565b9050919050565b6000610d4b82610d1e565b9050919050565b6000610d5d82610d40565b9050919050565b610d6d81610d52565b82525050565b6000602082019050610d886000830184610d64565b92915050565b6000604051905090565b600080fd5b600080fd5b6000610dad82610cf4565b9050919050565b610dbd81610da2565b8114610dc857600080fd5b50565b600081359050610dda81610db4565b92915050565b6000819050919050565b610df381610de0565b8114610dfe57600080fd5b50565b600081359050610e1081610dea565b92915050565b600080600060608486031215610e2f57610e2e610d98565b5b6000610e3d86828701610dcb565b9350506020610e4e86828701610dcb565b9250506040610e5f86828701610e01565b9150509250925092565b600081519050610e7881610db4565b92915050565b600060208284031215610e9457610e93610d98565b5b6000610ea284828501610e69565b91505092915050565b610eb481610da2565b82525050565b610ec381610de0565b82525050565b6000606082019050610ede6000830186610eab565b610eeb6020830185610eab565b610ef86040830184610eba565b949350505050565b60008115159050919050565b610f1581610f00565b8114610f2057600080fd5b50565b600081519050610f3281610f0c565b92915050565b600060208284031215610f4e57610f4d610d98565b5b6000610f5c84828501610f23565b91505092915050565b6000604082019050610f7a6000830185610eab565b610f876020830184610eba565b9392505050565b6000602082019050610fa36000830184610eab565b92915050565b600081519050610fb881610dea565b92915050565b600060208284031215610fd457610fd3610d98565b5b6000610fe284828501610fa9565b91505092915050565b600082825260208201905092915050565b7f62616c616e636545525200000000000000000000000000000000000000000000600082015250565b6000611032600a83610feb565b915061103d82610ffc565b602082019050919050565b6000602082019050818103600083015261106181611025565b9050919050565b6000819050919050565b600061108d61108861108384611068565b610d14565b610de0565b9050919050565b61109d81611072565b82525050565b60006040820190506110b86000830185611094565b6110c56020830184610eba565b9392505050565b6000819050919050565b60006110f16110ec6110e7846110cc565b610d14565b610de0565b9050919050565b611101816110d6565b82525050565b600060408201905061111c60008301856110f8565b6111296020830184610eba565b9392505050565b7f46697273742073776170206661696c6564000000000000000000000000000000600082015250565b6000611166601183610feb565b915061117182611130565b602082019050919050565b6000602082019050818103600083015261119581611159565b9050919050565b600080fd5b6000601f19601f8301169050919050565b7f4e487b7100000000000000000000000000000000000000000000000000000000600052604160045260246000fd5b6111ea826111a1565b810181811067ffffffffffffffff82111715611209576112086111b2565b5b80604052505050565b600061121c610d8e565b905061122882826111e1565b919050565b600067ffffffffffffffff821115611248576112476111b2565b5b602082029050602081019050919050565b600080fd5b600061127161126c8461122d565b611212565b9050808382526020820190506020840283018581111561129457611293611259565b5b835b818110156112bd57806112a98882610e69565b845260208401935050602081019050611296565b5050509392505050565b600082601f8301126112dc576112db61119c565b5b81516112ec84826020860161125e565b91505092915050565b60006020828403121561130b5761130a610d98565b5b600082015167ffffffffffffffff81111561132957611328610d9d565b5b611335848285016112c7565b91505092915050565b7f4e487b7100000000000000000000000000000000000000000000000000000000600052603260045260246000fd5b7f4e487b7100000000000000000000000000000000000000000000000000000000600052601160045260246000fd5b60006113a782610de0565b91507fffffffffffffffffffffffffffffffffffffffffffffffffffffffffffffffff82036113d9576113d861136d565b5b600182019050919050565b7f6e6f207761790000000000000000000000000000000000000000000000000000600082015250565b600061141a600683610feb565b9150611425826113e4565b602082019050919050565b600060208201905081810360008301526114498161140d565b905091905056fea26469706673582212203f22d1200cf7f0af901f19816909fb6fc022b11d13b216bd02b14b3736cbd1e964736f6c63430008130033",
  "immutableReferences": {},
  "source": "// SPDX-License-Identifier: MIT\r\npragma solidity ^0.8.18;\r\n\r\nimport \"./Pool.sol\";\r\nimport \"./Factory.sol\";\r\n\r\ncontract Router {\r\n\r\n    Factory public factory;\r\n\r\n    mapping(address => address) poolTok;\r\n\r\n    constructor(address _factory) {\r\n        factory = Factory(_factory);\r\n    }\r\n\r\n    //      \r\n    function findDeepPath(address tokenIn, address tokenOut) private view returns (address intermediateToken, address pool1, address pool2) {\r\n        address[] memory pools = factory.getAllPool();\r\n\r\n        //    \r\n        for (uint i = 0; i < pools.length; i++) {\r\n            Pool pool = Pool(pools[i]);\r\n            address token1 = pool.token1();\r\n            address token2 = pool.token2();\r\n\r\n            if (token1 == tokenIn || token2 == tokenIn){\r\n                if (tokenIn == token1){\r\n                    intermediateToken = token2;\r\n                } else if (tokenIn == token2){\r\n                    intermediateToken = token1;\r\n                }\r\n                pool1 = pools[i];\r\n                for (uint j; j<pools.length;j++){\r\n                    Pool tempPool = Pool(pools[j]);\r\n                    address tokenTemp1 = tempPool.token1();\r\n                    address tokenTemp2 = tempPool.token2();\r\n                    if ((tokenTemp1 == intermediateToken && tokenTemp2 == tokenOut) || (tokenTemp1 == tokenOut && tokenTemp2 == intermediateToken)){\r\n                    pool2 = pools[j];\r\n                    return(intermediateToken,pool1,pool2);\r\n                    }\r\n                }\r\n            }\r\n        }\r\n        revert(\"no way\");\r\n    }\r\n\r\n    function swapTokens(address tokenIn, address tokenOut, uint256 amountIn) public {\r\n        (address intermediateToken,address pool1, address pool2) = findDeepPath(tokenIn,tokenOut);\r\n        Pool Pool1 = Pool(pool1);\r\n        Pool Pool2 = Pool(pool2);\r\n        address token1Pool1 = Pool1.token1();\r\n        address token1Pool2 = Pool2.token1();\r\n\r\n        uint256 amountAfterFirstSwap;\r\n\r\n        ERC20(tokenIn).transferFrom(msg.sender,address(this),amountIn);\r\n        ERC20(tokenIn).approve(pool1,amountIn);\r\n        require(ERC20(tokenIn).balanceOf(address(this)) == amountIn, \"balanceERR\");\r\n\r\n        if (intermediateToken != token1Pool1){\r\n            Pool1.swapToken(1,amountIn);\r\n        } else {\r\n            Pool1.swapToken(2,amountIn);\r\n        }\r\n\r\n        amountAfterFirstSwap = ERC20(intermediateToken).balanceOf(address(this));\r\n        require(amountAfterFirstSwap > 0, \"First swap failed\");\r\n\r\n        ERC20(intermediateToken).approve(address(pool2),amountAfterFirstSwap);\r\n\r\n            if (intermediateToken == token1Pool2){\r\n                Pool2.swapToken(1 ,amountAfterFirstSwap);\r\n            } else {\r\n                Pool2.swapToken(2,amountAfterFirstSwap);\r\n            }\r\n        ERC20(tokenOut).transfer(msg.sender, ERC20(tokenOut).balanceOf(address(this)));\r\n    }\r\n}\r\n",
  "sourcePath": "C:\\Users\\Admin\\Desktop\\2025_B2\\Etherium\\try\\contracts\\Router.sol",
  "compiler": {
    "name": "solc",
    "version": "0.8.19+commit.7dd6d404.Emscripten.clang"
  },
  "schemaVersion": "3.4.16",
  "updatedAt": "2025-02-18T11:31:15.141Z",
  "devdoc": {
    "kind": "dev",
    "methods": {},
    "version": 1
  },
  "userdoc": {
    "kind": "user",
    "methods": {},
    "version": 1
  }
}