{
  "contractName": "Staking",
  "abi": [
    {
      "inputs": [
        {
          "internalType": "address",
          "name": "_LPTokenAddr",
          "type": "address"
        }
      ],
      "stateMutability": "nonpayable",
      "type": "constructor"
    },
    {
      "inputs": [],
      "name": "LPTokenAddr",
      "outputs": [
        {
          "internalType": "address",
          "name": "",
          "type": "address"
        }
      ],
      "stateMutability": "view",
      "type": "function"
    },
    {
      "inputs": [
        {
          "internalType": "address",
          "name": "",
          "type": "address"
        }
      ],
      "name": "firstStakingTime",
      "outputs": [
        {
          "internalType": "uint256",
          "name": "",
          "type": "uint256"
        }
      ],
      "stateMutability": "view",
      "type": "function"
    },
    {
      "inputs": [
        {
          "internalType": "address",
          "name": "",
          "type": "address"
        }
      ],
      "name": "howMuchStaking",
      "outputs": [
        {
          "internalType": "uint256",
          "name": "",
          "type": "uint256"
        }
      ],
      "stateMutability": "view",
      "type": "function"
    },
    {
      "inputs": [
        {
          "internalType": "address",
          "name": "",
          "type": "address"
        }
      ],
      "name": "lastRewardsTime",
      "outputs": [
        {
          "internalType": "uint256",
          "name": "",
          "type": "uint256"
        }
      ],
      "stateMutability": "view",
      "type": "function"
    },
    {
      "inputs": [],
      "name": "rewardPerSecond",
      "outputs": [
        {
          "internalType": "uint8",
          "name": "",
          "type": "uint8"
        }
      ],
      "stateMutability": "view",
      "type": "function"
    },
    {
      "inputs": [
        {
          "internalType": "address",
          "name": "",
          "type": "address"
        }
      ],
      "name": "rewards",
      "outputs": [
        {
          "internalType": "uint256",
          "name": "",
          "type": "uint256"
        }
      ],
      "stateMutability": "view",
      "type": "function"
    },
    {
      "inputs": [],
      "name": "totalStaking",
      "outputs": [
        {
          "internalType": "uint256",
          "name": "",
          "type": "uint256"
        }
      ],
      "stateMutability": "view",
      "type": "function"
    },
    {
      "inputs": [
        {
          "internalType": "uint256",
          "name": "amount",
          "type": "uint256"
        }
      ],
      "name": "stake",
      "outputs": [],
      "stateMutability": "nonpayable",
      "type": "function"
    },
    {
      "inputs": [],
      "name": "claimReward",
      "outputs": [],
      "stateMutability": "nonpayable",
      "type": "function"
    },
    {
      "inputs": [
        {
          "internalType": "address",
          "name": "userAddr",
          "type": "address"
        }
      ],
      "name": "calculateReward",
      "outputs": [
        {
          "internalType": "uint256",
          "name": "_RW",
          "type": "uint256"
        }
      ],
      "stateMutability": "view",
      "type": "function"
    }
  ],
  "bytecode": "0x6080604052600d6000806101000a81548160ff021916908360ff160217905550670de0b6b3a764000060015534801561003757600080fd5b50604051610f41380380610f4183398181016040528101906100599190610103565b80600760006101000a81548173ffffffffffffffffffffffffffffffffffffffff021916908373ffffffffffffffffffffffffffffffffffffffff16021790555050610130565b600080fd5b600073ffffffffffffffffffffffffffffffffffffffff82169050919050565b60006100d0826100a5565b9050919050565b6100e0816100c5565b81146100eb57600080fd5b50565b6000815190506100fd816100d7565b92915050565b600060208284031215610119576101186100a0565b5b6000610127848285016100ee565b91505092915050565b610e028061013f6000396000f3fe608060405234801561001057600080fd5b506004361061009e5760003560e01c8063b88a802f11610066578063b88a802f14610149578063d82e396214610153578063df85d11914610183578063efbad969146101b3578063fb0f2ec3146101e35761009e565b80630700037d146100a35780630833f8cd146100d3578063165defa4146100f15780638f10369a1461010f578063a694fc3a1461012d575b600080fd5b6100bd60048036038101906100b8919061095e565b610213565b6040516100ca91906109a4565b60405180910390f35b6100db61022b565b6040516100e891906109ce565b60405180910390f35b6100f9610251565b60405161010691906109a4565b60405180910390f35b610117610257565b6040516101249190610a05565b60405180910390f35b61014760048036038101906101429190610a4c565b610268565b005b61015161044e565b005b61016d6004803603810190610168919061095e565b6105f9565b60405161017a91906109a4565b60405180910390f35b61019d6004803603810190610198919061095e565b6108b3565b6040516101aa91906109a4565b60405180910390f35b6101cd60048036038101906101c8919061095e565b6108cb565b6040516101da91906109a4565b60405180910390f35b6101fd60048036038101906101f8919061095e565b6108e3565b60405161020a91906109a4565b60405180910390f35b60026020528060005260406000206000915090505481565b600760009054906101000a900473ffffffffffffffffffffffffffffffffffffffff1681565b60065481565b60008054906101000a900460ff1681565b600081116102ab576040517f08c379a00000000000000000000000000000000000000000000000000000000081526004016102a290610ad6565b60405180910390fd5b600042905080600560003373ffffffffffffffffffffffffffffffffffffffff1673ffffffffffffffffffffffffffffffffffffffff1681526020019081526020016000208190555080600360003373ffffffffffffffffffffffffffffffffffffffff1673ffffffffffffffffffffffffffffffffffffffff1681526020019081526020016000208190555081600460003373ffffffffffffffffffffffffffffffffffffffff1673ffffffffffffffffffffffffffffffffffffffff16815260200190815260200160002060008282546103879190610b25565b9250508190555081600660008282546103a09190610b25565b92505081905550600760009054906101000a900473ffffffffffffffffffffffffffffffffffffffff1673ffffffffffffffffffffffffffffffffffffffff166323b872dd3330856040518463ffffffff1660e01b815260040161040693929190610b59565b6020604051808303816000875af1158015610425573d6000803e3d6000fd5b505050506040513d601f19601f820116820180604052508101906104499190610bc8565b505050565b610457336105f9565b600260003373ffffffffffffffffffffffffffffffffffffffff1673ffffffffffffffffffffffffffffffffffffffff168152602001908152602001600020819055506000600760009054906101000a900473ffffffffffffffffffffffffffffffffffffffff1690508073ffffffffffffffffffffffffffffffffffffffff166340c10f1933600260003373ffffffffffffffffffffffffffffffffffffffff1673ffffffffffffffffffffffffffffffffffffffff168152602001908152602001600020546040518363ffffffff1660e01b815260040161053b929190610bf5565b600060405180830381600087803b15801561055557600080fd5b505af1158015610569573d6000803e3d6000fd5b5050505042600360003373ffffffffffffffffffffffffffffffffffffffff1673ffffffffffffffffffffffffffffffffffffffff168152602001908152602001600020819055506000600260003373ffffffffffffffffffffffffffffffffffffffff1673ffffffffffffffffffffffffffffffffffffffff1681526020019081526020016000208190555050565b600080600460008473ffffffffffffffffffffffffffffffffffffffff1673ffffffffffffffffffffffffffffffffffffffff168152602001908152602001600020540361064a57600090506108ae565b600073ffffffffffffffffffffffffffffffffffffffff168273ffffffffffffffffffffffffffffffffffffffff16036106b9576040517f08c379a00000000000000000000000000000000000000000000000000000000081526004016106b090610c6a565b60405180910390fd5b6000600360008473ffffffffffffffffffffffffffffffffffffffff1673ffffffffffffffffffffffffffffffffffffffff16815260200190815260200160002054426107069190610c8a565b90506000810361071957809150506108ae565b6000600154600654600154600460008873ffffffffffffffffffffffffffffffffffffffff1673ffffffffffffffffffffffffffffffffffffffff1681526020019081526020016000205461076e9190610cbe565b6107789190610d2f565b6107829190610b25565b905060006001546064600562278d006001548761079f9190610cbe565b6107a99190610d2f565b6107b39190610cbe565b6107bd9190610d2f565b6107c79190610b25565b905060006001546001546107db9190610cbe565b828460008054906101000a900460ff1660ff1687600460008c73ffffffffffffffffffffffffffffffffffffffff1673ffffffffffffffffffffffffffffffffffffffff168152602001908152602001600020546108399190610cbe565b6108439190610cbe565b61084d9190610cbe565b6108579190610cbe565b6108619190610d2f565b9050600081116108a6576040517f08c379a000000000000000000000000000000000000000000000000000000000815260040161089d90610dac565b60405180910390fd5b809450505050505b919050565b60056020528060005260406000206000915090505481565b60036020528060005260406000206000915090505481565b60046020528060005260406000206000915090505481565b600080fd5b600073ffffffffffffffffffffffffffffffffffffffff82169050919050565b600061092b82610900565b9050919050565b61093b81610920565b811461094657600080fd5b50565b60008135905061095881610932565b92915050565b600060208284031215610974576109736108fb565b5b600061098284828501610949565b91505092915050565b6000819050919050565b61099e8161098b565b82525050565b60006020820190506109b96000830184610995565b92915050565b6109c881610920565b82525050565b60006020820190506109e360008301846109bf565b92915050565b600060ff82169050919050565b6109ff816109e9565b82525050565b6000602082019050610a1a60008301846109f6565b92915050565b610a298161098b565b8114610a3457600080fd5b50565b600081359050610a4681610a20565b92915050565b600060208284031215610a6257610a616108fb565b5b6000610a7084828501610a37565b91505092915050565b600082825260208201905092915050565b7f416d6f756e74206d7573742062652067726561746572207468616e207a65726f600082015250565b6000610ac0602083610a79565b9150610acb82610a8a565b602082019050919050565b60006020820190508181036000830152610aef81610ab3565b9050919050565b7f4e487b7100000000000000000000000000000000000000000000000000000000600052601160045260246000fd5b6000610b308261098b565b9150610b3b8361098b565b9250828201905080821115610b5357610b52610af6565b5b92915050565b6000606082019050610b6e60008301866109bf565b610b7b60208301856109bf565b610b886040830184610995565b949350505050565b60008115159050919050565b610ba581610b90565b8114610bb057600080fd5b50565b600081519050610bc281610b9c565b92915050565b600060208284031215610bde57610bdd6108fb565b5b6000610bec84828501610bb3565b91505092915050565b6000604082019050610c0a60008301856109bf565b610c176020830184610995565b9392505050565b7f496e636f72726563742061646472657373000000000000000000000000000000600082015250565b6000610c54601183610a79565b9150610c5f82610c1e565b602082019050919050565b60006020820190508181036000830152610c8381610c47565b9050919050565b6000610c958261098b565b9150610ca08361098b565b9250828203905081811115610cb857610cb7610af6565b5b92915050565b6000610cc98261098b565b9150610cd48361098b565b9250828202610ce28161098b565b91508282048414831517610cf957610cf8610af6565b5b5092915050565b7f4e487b7100000000000000000000000000000000000000000000000000000000600052601260045260246000fd5b6000610d3a8261098b565b9150610d458361098b565b925082610d5557610d54610d00565b5b828204905092915050565b7f5265776172642063616c63756c61746564206173207a65726f00000000000000600082015250565b6000610d96601983610a79565b9150610da182610d60565b602082019050919050565b60006020820190508181036000830152610dc581610d89565b905091905056fea2646970667358221220254197ee9c1d2d88e5fd85061e3052d0fc79ae4196b8b5552d02c86408ab0b0664736f6c63430008130033",
  "immutableReferences": {},
  "source": "// SPDX-License-Identifier: MIT\r\npragma solidity ^0.8.18;\r\n\r\nimport \"./ERC20.sol\";\r\n\r\ncontract Staking {\r\n\r\n    uint8 public rewardPerSecond = 13;\r\n    uint256 SCALE = 1e18;\r\n\r\n    mapping(address => uint256) public rewards;\r\n    mapping(address => uint256) public lastRewardsTime;\r\n    mapping(address => uint256) public howMuchStaking;\r\n\r\n    mapping(address => uint256) public firstStakingTime;\r\n\r\n    uint256 public totalStaking;\r\n\r\n    address public LPTokenAddr;\r\n\r\n    constructor (address _LPTokenAddr){\r\n        LPTokenAddr = _LPTokenAddr;\r\n    }\r\n\r\n    //    LP \r\n    function stake(uint amount) public {\r\n        require(amount > 0, \"Amount must be greater than zero\");\r\n\r\n        uint256 currentTime= block.timestamp;\r\n        firstStakingTime[msg .sender] = currentTime;\r\n        lastRewardsTime[msg.sender] = currentTime;\r\n        howMuchStaking[msg.sender] += amount;\r\n        totalStaking += amount;\r\n\r\n        ERC20(LPTokenAddr).transferFrom(msg.sender, address(this), amount);\r\n    }\r\n\r\n    //    \r\n    function claimReward() public {\r\n        rewards[msg.sender] = calculateReward(msg.sender);\r\n        ERC20 lptok = ERC20(LPTokenAddr);\r\n        lptok.mint(msg.sender,rewards[msg.sender]);\r\n        lastRewardsTime[msg.sender] = block.timestamp;\r\n\r\n        rewards[msg.sender] = 0;\r\n    }\r\n\r\n    //    \r\n    function calculateReward(address userAddr) public view returns (uint256 _RW) {\r\n        //     -   \r\n        if (howMuchStaking[userAddr] == 0){\r\n            return 0;\r\n        }\r\n\r\n        require(userAddr != address(0), \"Incorrect address\");\r\n\r\n        uint256 timeStaked = block.timestamp - lastRewardsTime[userAddr];\r\n\r\n        //    ,  0\r\n        if (timeStaked == 0) {\r\n            return timeStaked;\r\n        }\r\n\r\n        uint256 bonusStake = (howMuchStaking[userAddr] * SCALE) / totalStaking + SCALE;\r\n        uint256 bonusTime = ((((timeStaked * SCALE) / 2592000) * 5) / 100) + SCALE;\r\n        // 2592000 - 30 \r\n\r\n        uint256 RW = (howMuchStaking[userAddr] * timeStaked * rewardPerSecond * bonusStake * bonusTime)/ (SCALE * SCALE);\r\n        require(RW > 0, \"Reward calculated as zero\");\r\n\r\n        return RW;\r\n    }\r\n}\r\n",
  "sourcePath": "C:\\Users\\Admin\\Desktop\\2025_B2\\Etherium\\try\\contracts\\Staking.sol",
  "compiler": {
    "name": "solc",
    "version": "0.8.19+commit.7dd6d404.Emscripten.clang"
  },
  "schemaVersion": "3.4.16",
  "updatedAt": "2025-02-18T11:31:15.151Z",
  "devdoc": {
    "kind": "dev",
    "methods": {},
    "version": 1
  },
  "userdoc": {
    "kind": "user",
    "methods": {},
    "version": 1
  }
}